{
  "contractName": "CommentList",
  "abi": [
    {
      "constant": true,
      "inputs": [],
      "name": "commentCount",
      "outputs": [
        {
          "name": "",
          "type": "uint256"
        }
      ],
      "payable": false,
      "stateMutability": "view",
      "type": "function",
      "signature": "0x45ff20de"
    },
    {
      "constant": true,
      "inputs": [
        {
          "name": "",
          "type": "uint256"
        }
      ],
      "name": "comments",
      "outputs": [
        {
          "name": "id",
          "type": "uint256"
        },
        {
          "name": "content",
          "type": "string"
        },
        {
          "name": "deleted",
          "type": "bool"
        }
      ],
      "payable": false,
      "stateMutability": "view",
      "type": "function",
      "signature": "0x8ebb4c15"
    },
    {
      "inputs": [],
      "payable": false,
      "stateMutability": "nonpayable",
      "type": "constructor",
      "signature": "constructor"
    },
    {
      "anonymous": false,
      "inputs": [
        {
          "indexed": false,
          "name": "id",
          "type": "uint256"
        },
        {
          "indexed": false,
          "name": "content",
          "type": "string"
        },
        {
          "indexed": false,
          "name": "deleted",
          "type": "bool"
        }
      ],
      "name": "CommentCreated",
      "type": "event",
      "signature": "0x89f2d3645a2de936a0aa2dfddf7d0f5bdad604b8a33d0083eb16b86de0aaa1b0"
    },
    {
      "anonymous": false,
      "inputs": [
        {
          "indexed": false,
          "name": "id",
          "type": "uint256"
        },
        {
          "indexed": false,
          "name": "deleted",
          "type": "bool"
        }
      ],
      "name": "CommentDeleted",
      "type": "event",
      "signature": "0x6b8786e066425f4d96ea09940f2847ebf9b2094ac68bb6b542469445bc506867"
    },
    {
      "constant": false,
      "inputs": [
        {
          "name": "_content",
          "type": "string"
        }
      ],
      "name": "createComment",
      "outputs": [],
      "payable": false,
      "stateMutability": "nonpayable",
      "type": "function",
      "signature": "0x71f13071"
    },
    {
      "constant": false,
      "inputs": [
        {
          "name": "_id",
          "type": "uint256"
        }
      ],
      "name": "toggleDeleted",
      "outputs": [],
      "payable": false,
      "stateMutability": "nonpayable",
      "type": "function",
      "signature": "0x6c444f56"
    }
  ],
  "bytecode": "0x60806040526000805534801561001457600080fd5b5060408051808201909152600f81527f6372656174656420436f6d6d656e740000000000000000000000000000000000602082015261005b90640100000000610060810204565b61021f565b60008054600190810180835560408051606081018252828152602080820187815282840187905293865284815291909420845181559151805192936100ad93908501929190910190610184565b5060408201518160020160006101000a81548160ff0219169083151502179055509050507f89f2d3645a2de936a0aa2dfddf7d0f5bdad604b8a33d0083eb16b86de0aaa1b0600054826000604051808481526020018060200183151515158152602001828103825284818151815260200191508051906020019080838360005b8381101561014557818101518382015260200161012d565b50505050905090810190601f1680156101725780820380516001836020036101000a031916815260200191505b5094505050505060405180910390a150565b828054600181600116156101000203166002900490600052602060002090601f016020900481019282601f106101c557805160ff19168380011785556101f2565b828001600101855582156101f2579182015b828111156101f25782518255916020019190600101906101d7565b506101fe929150610202565b5090565b61021c91905b808211156101fe5760008155600101610208565b90565b6106448061022e6000396000f3fe6080604052600436106100615763ffffffff7c010000000000000000000000000000000000000000000000000000000060003504166345ff20de81146100665780636c444f561461008d57806371f13071146100b95780638ebb4c151461016c575b600080fd5b34801561007257600080fd5b5061007b610220565b60408051918252519081900360200190f35b34801561009957600080fd5b506100b7600480360360208110156100b057600080fd5b5035610226565b005b3480156100c557600080fd5b506100b7600480360360208110156100dc57600080fd5b8101906020810181356401000000008111156100f757600080fd5b82018360208201111561010957600080fd5b8035906020019184600183028401116401000000008311171561012b57600080fd5b91908080601f016020809104026020016040519081016040528093929190818152602001838380828437600092019190915250929550610386945050505050565b34801561017857600080fd5b506101966004803603602081101561018f57600080fd5b50356104aa565b604051808481526020018060200183151515158152602001828103825284818151815260200191508051906020019080838360005b838110156101e35781810151838201526020016101cb565b50505050905090810190601f1680156102105780820380516001836020036101000a031916815260200191505b5094505050505060405180910390f35b60005481565b61022e610559565b60008281526001602081815260409283902083516060810185528154815281840180548651600296821615610100026000190190911695909504601f810185900485028601850190965285855290949193858401939092908301828280156102d75780601f106102ac576101008083540402835291602001916102d7565b820191906000526020600020905b8154815290600101906020018083116102ba57829003601f168201915b50505091835250506002919091015460ff161515602091820152604080830180511590526000858152600180845291902083518155838301518051949550859491936103289385019291019061057d565b50604091820151600291909101805460ff1916911515919091179055818101518151848152901515602082015281517f6b8786e066425f4d96ea09940f2847ebf9b2094ac68bb6b542469445bc506867929181900390910190a15050565b60008054600190810180835560408051606081018252828152602080820187815282840187905293865284815291909420845181559151805192936103d39390850192919091019061057d565b5060408201518160020160006101000a81548160ff0219169083151502179055509050507f89f2d3645a2de936a0aa2dfddf7d0f5bdad604b8a33d0083eb16b86de0aaa1b0600054826000604051808481526020018060200183151515158152602001828103825284818151815260200191508051906020019080838360005b8381101561046b578181015183820152602001610453565b50505050905090810190601f1680156104985780820380516001836020036101000a031916815260200191505b5094505050505060405180910390a150565b600160208181526000928352604092839020805481840180548651600296821615610100026000190190911695909504601f810185900485028601850190965285855290949193929091908301828280156105465780601f1061051b57610100808354040283529160200191610546565b820191906000526020600020905b81548152906001019060200180831161052957829003601f168201915b5050506002909301549192505060ff1683565b60606040519081016040528060008152602001606081526020016000151581525090565b828054600181600116156101000203166002900490600052602060002090601f016020900481019282601f106105be57805160ff19168380011785556105eb565b828001600101855582156105eb579182015b828111156105eb5782518255916020019190600101906105d0565b506105f79291506105fb565b5090565b61061591905b808211156105f75760008155600101610601565b9056fea165627a7a7230582047ab948b4816661c99a545ab00a4864cf94f37f5d8084ad5f4eecc6ddfe4ae4a0029",
  "source": "pragma solidity ^0.5.0;\n\ncontract CommentList {\n  uint public commentCount = 0;\n\n  struct Comment {\n    uint id;\n    string content;\n    bool deleted;\n  }\n\n  mapping(uint => Comment) public comments;\n\n  event CommentCreated(\n    uint id,\n    string content,\n    bool deleted\n  );\n\n  event CommentDeleted(\n    uint id,\n    bool deleted\n  );\n\n  constructor() public {\n    createComment(\"created Comment\");\n  }\n\n  function createComment(string memory _content) public {\n    commentCount ++;\n    comments[commentCount] = Comment(commentCount, _content, false);\n    emit CommentCreated(commentCount, _content, false);\n  }\n\n  function toggleDeleted(uint _id) public {\n    Comment memory _comment = comments[_id];\n    _comment.deleted = !_comment.deleted;\n    comments[_id] = _comment;\n    emit CommentDeleted(_id, _comment.deleted);\n  }\n}\n",
  "sourcePath": "/home/vipul/Pictures/ethereum_app/contracts/CommentList.sol",
  "compiler": {
    "name": "solc",
    "version": "0.5.0+commit.1d4f565a.Emscripten.clang"
  },
  "schemaVersion": "3.0.1",
  "updatedAt": "2023-11-29T17:53:06.517Z",
  "devdoc": {
    "methods": {}
  },
  "userdoc": {
    "methods": {}
  }
}